:020C50000ACFC9
:020C52000C494B
:020C54000BD7BC
:100A6F002D002000534554483A2020204300534581
:100A7F00544C3A202020430054656D703A202020BA
:100A8F0020204300534554483A2020005345544CEE
:040A9F003A202000D9
:0C0C09000124000125160123280121010F
:100650001208988E0E8F0F850E26850F27C3E50E84
:10066000648094805013C3E4950FF50FE4950EF564
:100670000E7BFF7A0A796F80067BFF7A0A7971E434
:10068000FD7F0712072AAE0EAF0F7C007D641202B9
:1006900020EF2430F510AE0EAF0F7C007D64120207
:1006A00020AA04AB057D0A7C00AF03AE0212022033
:1006B000EF2430F51175122E7D0A7C00AF03AE02D7
:1006C000120220ED2430F513E4F514FB7A007910C2
:1006D000FD7F0812072AE52375F00A1201D32430A2
:1006E000F510E52375F00A1201D3AFF0EF2430F5D1
:1006F00011E4F512FB7A0079107D017F0512072ABB
:10070000E52575F00A1201D32430F510E52575F0C2
:100710000A1201D3AFF0EF2430F511E4F512FB7AA1
:0A0720000079107D017F0E02072A08
:0209AF008F12A5
:1009B100E521602530B10630B00320B21C7FE87E0E
:1009C10003120C22E4F52120B2037F032220B1039C
:1009D1007F012220B00F7F022230B10930B00630F2
:0E09E100B203752101E51260037521017F004C
:0109EF0022E5
:10053A00E4FF1209AF8F0EE50E6401704E05221218
:10054A000C37E522B4010A7BFF7A0A7973E4FD804D
:10055A000EE522B4020C7BFF7A0A797D7D01E4FF65
:10056A008026E4F5227BFF7A0A7987FD7F0212074B
:10057A002A7BFF7A0A79937D01E4FF12072A7BFF1F
:10058A007A0A799B7D017F0912072AE522640170A4
:10059A0056E50E24FD601304701E0523C3E523648B
:1005AA008094D04013752350800E1523D3E523641D
:1005BA008094805003E4F523E52375F00A1201D3F1
:1005CA002430F50FE52375F00A1201D3AFF0EF24BA
:1005DA0030F510E4F511FB7A00790FFD7F0612075A
:1005EA002AAD23E4FF805BE52264027058E50E24FD
:1005FA00FD601304701E0525C3E525648094D04070
:10060A0013752550800E1525D3E5256480948050F6
:10061A0003E4F525E52575F00A1201D32430F50F18
:10062A00E52575F00A1201D3AFF0EF2430F510E496
:10063A00F511FB7A00790F7D017F0612072AAD2595
:05064A007F02120B7C91
:01064F002288
:100B9500750E32AF0E150EEF600BB2957F0A7E0013
:050BA500120C2280EE9D
:010BAA002228
:100BAB00750E32AF0E150EEF600BB2957F647E00A3
:050BBB00120C2280EE87
:010BC0002212
:1008E400AF23EF3395E0FE7C007D0A12020ED3E5C0
:1008F400279FE5269E4009D2A4D290D294020B955C
:10090400AF25EF3395E0FE7C007D0A12020EC3E5AD
:10091400279FE5269E5009D2A4C290C294020BAB35
:07092400C290C2A4D294228C
:100842007FFF120B1EEF64126017AD23E4FF120B41
:100852007CAD257F02120B7C7D127FFF120B7C8008
:100862000EE4FF120B1E8F237F02120B1E8F257BBD
:10087200FF7A0A7987E4FD7F0212072A7BFF7A0A50
:1008820079937D01E4FF12072A7BFF7A0A799B7D27
:06089200017F0902072AA4
:100ACF007F011202B97F021202B97F031202B9E449
:100ADF00F524AF241203427D0A7F80120369052497
:090AEF00E524C3940340EB80E60A
:070C4900C290C2A4D2942264
:100BD700120B40120842E522700312065012053A22
:050BE7001208E480F19A
:050BFB00120C00D2A164
:080C00007F017E02DEFEDFFA37
:010C080022C9
:0F0BEC00D2A0120BFBC2A0120C00C2A1020C007F
:0A0C2D00C2A0120BFBD2A0020C00C3
:0209F000AD0751
:1009F200E4FBFAEDC4131313540124FF92A0ED2576
:100A0200E0FD120BFBC2A1120C000BBB08E5D2A049
:100A1200120C00D2A130A00F0AEAD394C840F6C249
:0E0A2200A1120C007F0022C2A1120C007F0165
:010A300022A3
:100AF800E4FDFCD2A0120C00D2A1120C00EC25E0FF
:100B0800FCA2A0E4334204120C00C2A1120C000D96
:050B1800BD08E5AF047B
:010B1D0022B5
:100B7C00AC05A907120BEC7FA01209F0AF0112090A
:090B8C00F0AF041209F0020C2D77
:020B1E00AC0722
:100B2000120BEC7FA01209F0AF041209F0120BECCB
:0F0B30007FA11209F0120AF8AD07120C2DAF05C4
:010B3F002293
:10092B00C2A58B807F017E00120954D2A77F057E62
:10093B0000120954C2A7EBC454F0F5807F017E006E
:09094B00120954D2A77F057E00B9
:10095400D3EF9400EE9400400F7DC77C01DCFEDDF4
:08096400FAEF1F70EB1E80E8A2
:01096C002268
:0C0C1600AB07C2A7C2A612092BC2A7227E
:0A0BC100AB16AA17A9181201F5FFE0
:0C0BCB00AB07C2A7D2A612092BC2A722BA
:100B40007F32120C167F28120C167F0C120C167FA7
:0E0B500006120C167F01120C167F80020C1686
:0A0C37007F01120C167F80020C16DC
:08072A008F158B168A17891840
:10073200E4F519EDC39401503DAB16AA17A918129E
:1007420001F5606FC374109515C36480F8E51964F0
:100752008098E5195006248025158004251524B0BB
:10076200FF120C16120BC174012518F518E4351787
:10077200F517051980C3AB16AA17A9181201F5605F
:1007820032C374109515C36480F8E519648098E546
:1007920019500624C02515800425152470FF120C5B
:1007A20016120BC174012518F518E43517F5170553
:0307B2001980C3E8
:0107B5002221
:0B0C2200EF1FAC0670011E4C70F622A4
:100B5E00D3EF9400EE940040147D6E7C00ED1D707A
:0D0B6E00011CED4C70F7EF1F70E61E80E3D8
:010B7B002257
:100AA300C2B77F467E00EF1FAC0670011E4C70F686
:100AB300D2B7E4FEFF30B7110FBF00010ED3EF949E
:0B0AC30088EE941340EF7F00227F01BB
:010ACE002205
:0C096D00120AA37F017E00120B5E7FCCFB
:10097900E4FBFAC2B70518E51870020517EF1392E0
:10098900B7751700751806E5181518AC1770021514
:10099900174C70F3D2B7EFC313FF0BBB00010AEB7F
:0509A90064084A70CE55
:0109AE002226
:100A31007D087C00C2B70FBF0000D2B70FBF000016
:100A41000FBF0000A2B7E433C43333335480FBE952
:100A5100C3134BF97E007F04EF1FAA0670011E4AE3
:0D0A610070F6ED1D70011CED4C70C9AF0169
:010A6E002265
:0800030012096D7F4402097926
:080C410012096D7FBE02097962
:10089800E4F515120003120C41120A318F16120AE0
:1008A80031EFD39407400B6307FF6316FFE4F51598
:1008B8008003751501EFFEE516FFAD07AC06EC12D7
:1008C8000119E4FBFA7920783F12000E120152E573
:0B08D80015600122C3E49FFFE49EFEB8
:0108E30022F2
:1002B900EFD3940240037FFF22741B2F2FF8E6200F
:1002C900E5F4C2AFE64430F6D2AFAE0CEEC39F50B0
:1002D900210E74282EF8E6F908E618BE020274FF0A
:1002E900FDED69600909E71919F7090980F316167F
:1002F90080DAEED39F400405810581EED39F402229
:1003090074282EF808E6F9EEB50C02A9811806063C
:10031900E6FDED6960091919E70909F71980F31E66
:1003290080D9EF2428F8E604F8EF2F04900C5093B5
:09033900F608EF2F93F67F002275
:10034200EFD3940240037FFF22EF23241BF8C2AFB6
:10035200E630E50530E002D2E4D2E2C6D2AF7F0059
:0703620030E2010F02041755
:100369008FF0E4FFFEE50C23241AF8C2A930F70D3B
:100379007F08E6600B2DF660325030800730F106B9
:10038900EDF660277E020830F010C2AFE610E725CF
:100399000E30E20CD2AF7F048014C2AFE610E7152D
:1003A90054EC4EF6D2AFD2A90204437F0808EF44B9
:0F03B90083F4C2AF56C6D2AFD2A954804FFF22F1
:03000B000203CD20
:1003C800C2AF80FE321203CC85D00B75D008AAE0EC
:1003D800C28CE58A24F7F58AE58C34D8F58CD28C62
:1003E800EC2429F8E6BC020274FFC39581B414001A
:1003F80040CE7903781A16E608700BC2AFE630E1F2
:10040800034418F6D2AF08D9EDEA8BD030000122A8
:10041800D50DFCC0E0C0D0C0F0C083C082C000C011
:1004280001C002C003C004C005C006C007E50C2314
:10043800241BF87440C2AF46F6D2AFD200E50CFFD9
:1004480023241BF80F0808BF03047F00781BE6303D
:10045800E4F200E50CC39F5020050C7428250CF825
:10046800E6FDA68108E6AE0CBE020274FFCDF8E8F0
:100478006D60E008E6C0E080F6E50CD39F4027E514
:100488000C2429F8E6AE0CBE020274FFFD18E6CD76
:10049800F8E5816D6006D0E0F61880F5E50C2428B3
:1004A800C8F6150C80D3750D05E50C23241BF87FC1
:1004B80004C2AFE610E61E30E00310E20C7F003005
:0504C800E10730E30430
:1004CD007F0854F4547CC6D2AF54804207C2002238
:1004DD00F6D2AFD007D006D005D004D003D002D0CD
:1004ED0001D000D082D083D0F0D0D0D0E0C2002295
:1004FD007828A68174026006FF0876FFDFFB7F0374
:10050D00E4781AF608F608DFFA781B7630900C506E
:10051D00740193C0E0E493C0E0750D054389017546
:0D052D008AF0758CD8D28CD2AFD2A92202F0
:10000E00EC4D6011E8497017ED33EC3304600DE4EC
:10001E00FCFFFEFD22E933E8330470F80201BE1244
:10002E00018958046009E4CC248150062850090245
:10003E0001C82840030201C5C0E0EB4A7044B980F4
:10004E0006D0E0FB0201B4EF4E701CBD8008EBFF42
:10005E00EAFEE9FD80EBE98DF0A4FEE5F00200F783
:10006E00E9CDF9EAFEEBFFEF89F0A4FCE5F0CE89CD
:10007E00F0A42EFFE435F0CD89F0A42DFEE435F08A
:10008E008067EF4E7005BD80D780C3EF8BF0A4ACB8
:10009E00F0EE8BF0A42CFCE435F0F8EF8AF0A42CF3
:1000AE00E5F038FCE433CB8DF0A42CFCE5F03BF806
:1000BE00EE8AF0A42CFCE5F038F8E433CF89F0A4F6
:1000CE002CFCE5F038CF3400CE89F0A42FFFE5F0FC
:1000DE003EFEE433C98DF0A42EFEE5F039CD8AF054
:1000EE00A42FFFE5F03EFEE43DFD33D0E0FB5007CC
:1000FE000BBB000F0201C8EC2CFCEF33FFEE33FEFE
:06010E00ED33FD0201A02B
:1001140075F020800E75F010800575F0087D007E66
:10012400007F003392D530D503120256EC334010D1
:10013400EF33FFEE33FEED33FDEC33FCD5F0ED226F
:0E014400E5F0247EA2D513CC92E7CDCEFF22AB
:10015200EDD2E7CD33EC3392D524814006E4FFFEA5
:10016200FDFC22FCE4CFCECDCC24E0501174FF8004
:10017200EDC3CC13CCCD13CDCE13CECF13CF0470A1
:07018200F030D5DE02025649
:10018900E9D2E7C933E833F892D5EDD2E7CD33ECBC
:0701990033FC5002B2D52235
:1001A000EC30E7100FBF000C0EBE00080DBD0004C0
:1001B0000BEB6014A2D5EB13FCED92E7FD2274FF6C
:1001C000FCFDFEFF22E480F8A2D574FF13FC7D80C5
:0301D000E480EFD9
:030000000207B63E
:0C07B600787FE4F6D8FD75812A0207FD6B
:1001D300C2D530F707B2D563F0FF05F030E70CB2B4
:1001E300D5F4048463F0FF05F080018430D502F474
:0201F3000422E4
:1001F500BB010689828A83E0225002E722BBFE0208
:09020500E32289828A83E493223A
:10020E00EF8DF0A4A8F0CF8CF0A428CE8DF0A42E04
:02021E00FE22BE
:10022000C2D5EC30E709B2D5E4C39DFDE49CFCEEF9
:1002300030E715B2D5E4C39FFFE49EFE120264C30B
:10024000E49DFDE49CFC800312026430D507C3E406
:060250009FFFE49EFE2268
:0E025600C3E49FFFE49EFEE49DFDE49CFC22B9
:1007C2000204FDE493A3F8E493A34003F68001F24C
:1007D20008DFF48029E493A3F85407240CC8C33338
:1007E200C4540F4420C8834004F456800146F6DF07
:1007F200E4800B0102040810204080900C09E47E82
:10080200019360BCA3FF543F30E509541FFEE493FB
:10081200A360010ECF54C025E060A840B8E493A3C2
:10082200FAE493A3F8E493A3C8C582C8CAC583CAED
:10083200F0A3C8C582C8CAC583CADFE9DEE780BEA5
:010C150000DE
:10026400BC000BBE0029EF8DF084FFADF022E4CC7E
:10027400F875F008EF2FFFEE33FEEC33FCEE9DEC47
:10028400984005FCEE9DFE0FD5F0E9E4CEFD22ED8D
:10029400F8F5F0EE8420D21CFEADF075F008EF2FD7
:1002A400FFED33FD4007985006D5F0F222C398FDC8
:0502B4000FD5F0EA2265
:00000001FF
